:020000040800F2
:100000001004002001010008A30500088104000875
:1000100051050008490100084D0B000800000000D0
:10002000000000000000000000000000A106000821
:100030004D0100080000000029060008B50700086F
:100040001B0100081B0100081B0100081B01000820
:100050001B0100081B0100081B0100081B01000810
:100060001B0100081B010008510100081B010008CA
:100070001B0100081B0100081B0100081B010008F0
:100080001B0100081B0100081B0100081B010008E0
:100090001B0100081B0100081B0100081B010008D0
:1000A0001B0100081B0100081B0100081B010008C0
:1000B0001B0100081B0100081B0100081B010008B0
:1000C0001B0100081B0100081B0100081B010008A0
:1000D0001B0100081B0100081B0100081B01000890
:1000E0001B0100081B0100081B010008DFF80CD0F1
:1000F00000F018F800480047BD0B0008100400206D
:100100000648804706480047FEE7FEE7FEE7FEE7B1
:10011000FEE7FEE7FEE7FEE7FEE7FEE7F50700087D
:10012000ED000008064C074D06E0E06840F00103D2
:1001300094E8070098471034AC42F6D3FFF7DAFF93
:10014000B80D0008D80D000800BFFEE7704700009A
:1001500010B5102000F040F801282BD11748007886
:1001600040B317480068012824D116480088401C75
:100170001449088014480068012811D108460088F5
:10018000B0F5FA7F0CD11048006808B9012000E0F2
:1001900000200D49086040F24C400A49088009E0FF
:1001A00008480088B0F5C86F04D1002005490880D0
:1001B00002490870102000F009F810BD000000206E
:1001C0001001214202000020A08121420149086063
:1001D0007047000014040140014600200022074B34
:1001E0001B6803EA0102054B14331B680B4013B173
:1001F0000AB1012000E00020704700000004014027
:10020000002123498279002A3AD00A4612680368FD
:100210009A430B461A600A1D126803689A430B1D25
:100220001A60027911440A6803681A430A60184A7E
:100230000832126803689A43154B08331A601A1D76
:10024000126803689A43124B0C331A604279102AE1
:100250000ED11A1F126803681A430D4B08331A6037
:100260001A1D126803681A43094B0C331A600DE01B
:100270000749427911440A6803681A430A6005E095
:10028000027911440A6803689A430A6070470000C3
:100290000004014030B500228B071C0F0F2303FA26
:1002A00004F20B4B8C1053F824309343084C8D1000
:1002B00044F8253023468C1053F824308C07240F43
:1002C00000FA04F42343024C8D1044F8253030BD6D
:1002D000080001402DE9F0410246002500260020DB
:1002E00000230024002791F803C00CF00F0591F8BB
:1002F00003C00CF0100CBCF1000F03D091F802C049
:100300004CEA050591F800C0BCF1000F31D014682B
:1003100000202BE04FF0010C0CFA00F3B1F800C004
:100320000CEA03069E4220D183004FF00F0C0CFA1A
:1003300003F7BC4305FA03FC4CEA040491F803C03C
:10034000BCF1280F06D14FF0010C0CFA00FCC2F8EA
:1003500014C00AE091F803C0BCF1480F05D14FF07A
:10036000010C0CFA00FCC2F810C0401C0828D1D3C4
:100370001460B1F800C0BCF1FF0F34DD54680020F8
:100380002EE000F1080C4FF0010808FA0CF3B1F868
:1003900000C00CEA03069E4221D183004FF00F0CEF
:1003A0000CFA03F7BC4305FA03FC4CEA040491F889
:1003B00003C0BCF1280F05D100F1080C08FA0CF8B5
:1003C000C2F8148091F803C0BCF1480F07D100F1C6
:1003D000080C4FF0010808FA0CF8C2F81080401C15
:1003E0000828CED35460BDE8F0810000F0B50A467D
:1003F000002300240021002500F00046B6F1004F44
:1004000002D11D4EF16901E01B4E7168C0F3034536
:1004100083B200F44016B6F5401F08D121F0706198
:10042000154E766826F07066134F7E6012E000F479
:100430008016B6F5801F06D1032606FA05F4A143FF
:1004400041F0706106E0460D360103FA06F6B1434D
:1004500041F0706122B1460D360103FA06F63143D0
:1004600000F00046B6F1004F02D1034EF16101E009
:10047000014E7160F0BD0000000001400161704755
:1004800000BFFEE708B50121042000F0DFF81F20BF
:10049000ADF8000048208DF8030003208DF802001D
:1004A00069460248FFF716FF08BD0000000801403A
:1004B00010B5044616480078012817D11548006881
:1004C00018B11448001D006880B90A2000F050FBE4
:1004D00000200F4908700F48006808B9032010BDBC
:1004E0000C48001D006860B90420F8E7094800685E
:1004F000012806D10748001D0068012801D10449E0
:100500000870012C02D10120014908700020E6E7A3
:10051000040000200801214208B50121102000F04C
:1005200095F84FF40050ADF8000010208DF803004E
:1005300003208DF8020069460448FFF7CBFE4FF414
:1005400000510248FFF79AFF08BD0000001001406B
:1005500000BFFEE70EB50121084600F077F8042140
:100560000020FFF797FE0A208DF8080001208DF883
:10057000090000208DF80A0001208DF80B0002A868
:1005800000F010F81020009000208DF804000820E2
:100590008DF8050001208DF806006846FFF730FE53
:1005A0000EBD704770B5002100230F22C47804B33C
:1005B000154C246804F4E064C4F5E064210AC1F138
:1005C0000403CA40447804FA03F1847814402143B8
:1005D00009010E4C0678A155047804F01F0501248A
:1005E000AC4005786D11AD0005F1E025C5F800417E
:1005F00009E0047804F01F050124AC40044D06789E
:10060000761145F8264070BD0CED00E000E400E0F6
:1006100080E100E002490143024A11607047000096
:100620000000FA050CED00E07047000029B1064A11
:10063000D2690243044BDA6104E0034AD26982437F
:10064000014BDA61704700000010024029B1064AF0
:1006500092690243044B9A6104E0034A926982431F
:10066000014B9A61704700000010024010B50B4822
:10067000006818B10948001D006868B90A2000F038
:1006800077FA0648006808B9012010BD0348001D2C
:10069000006808B90220F8E70020F6E700012142CF
:1006A000704710B500F002F810BD00000CB5002036
:1006B000019000903348006840F480303149086070
:1006C00000BF3048006800F4003000900198401CE2
:1006D0000190009818B90198B0F5A06FF1D12948A0
:1006E000006800F4003010B10120009001E000200B
:1006F00000900098012843D12348006840F0100082
:10070000214908600846006820F003000860084698
:10071000006840F0020008601A48406819494860C3
:100720000846406848600846406840F48060486079
:100730000846406820F47C1048600846406840F451
:10074000E81048600846006840F08070086000BF0C
:100750000C48006800F000700028F9D00948406893
:1007600020F00300074948600846406840F0020056
:10077000486000BF0348406800F00C000828F9D129
:100780000CBD00000010024000200240042808D1E7
:100790004FF0E021096941F004014FF0E0221161BE
:1007A00007E04FF0E021096921F004014FF0E02259
:1007B000116170477047000010B504466FF00400E7
:1007C000FFF7E4FFE11704EB5171C1F3C701074ADA
:1007D00011701046007800EB4001C1EBC0104FF6DD
:1007E000FF7101EAC0000249088010BD0600002028
:1007F0000800002010B51348006840F001001149BE
:10080000086008464068104908400E49486008469C
:1008100000680E4908400B4908600846006820F44B
:10082000802008600846406820F4FE0048604FF4CD
:100830001F008860FFF735FF4FF000600449086033
:1008400010BD0000001002400000FFF8FFFFF6FEA0
:1008500008ED00E008B501210820FFF7F7FE4FF48E
:10086000AD70ADF8000010208DF8030003208DF866
:10087000020069460148FFF72DFD08BD000C01404C
:1008800030B589B005460C4601210820FFF7DEFE91
:1008900001210220FFF7CAFE01210846FFF7D6FE1C
:1008A0002020ADF8040003208DF8060018208DF8F4
:1008B000070001A91748FFF70DFD01211648FFF7B2
:1008C00095FDADF81C50ADF818400020ADF81E00A5
:1008D000ADF81A0006A9114800F0E6F86020ADF85E
:1008E00008000020ADF810000120ADF80A0002A9B0
:1008F0000A4800F077F80821084800F0C5F80121FF
:10090000064800F057F80121044800F05FF809B0EC
:1009100030BD0000000C014000081A000004004037
:1009200030B589B005460C4601210820FFF78EFE40
:1009300001210420FFF77AFE01210846FFF786FE19
:100940008020ADF8040003208DF8060018208DF8F3
:10095000070001A91548FFF7BDFCADF81C50ADF824
:1009600018400020ADF81E00ADF81A0006A9104886
:1009700000F09AF86020ADF808000020ADF81000F3
:100980000120ADF80A0002A9094800F02BF808215F
:10099000074800F079F80121054800F00BF8012123
:1009A000034800F013F809B030BD0000000C01400E
:1009B0000008004021B1028842F08002028004E079
:1009C00002884FF67F731A400280704721B1028877
:1009D00042F00102028004E002884FF6FE731A40E2
:1009E0000280704770B5002400220023058C4FF66A
:1009F000EF7635400584028C8388048B48F6FF75BA
:100A00002C404FF6FF452C400D884FF6FF7606EA46
:100A100005252C434FF6DF752A400D8906EA05159A
:100A20002A434D8806EA05152A43154DA84202D0EF
:100A3000144DA8421DD14FF67F752A404D894FF6BF
:100A4000FF7606EA05152A434FF6BF752A408D88C2
:100A500006EA05152A434FF6FF352B404FF2FF7586
:100A60002B408D8906EA85052B43CD8906EA85054D
:100A70002B4383800483CD880587028470BD0000EA
:100A8000002C0140003401400A460021018B4FF246
:100A9000FF7319404FF6FF7303EA022319430183E2
:100AA0007047018770470000002202881D4B984262
:100AB0000ED01D4B98420BD0B0F1804F08D01B4B8D
:100AC000984205D01A4B984202D01A4B984204D152
:100AD0004FF68F731A404B881A43174B984207D032
:100AE000164B984204D04FF6FF431A40CB881A4366
:100AF00002808B8883850B8803850A4B98420BD034
:100B0000094B984208D00E4B984205D00D4B9842A5
:100B100002D00D4B984201D10B7A038601238382C8
:100B200070470000002C01400034014000040040E8
:100B300000080040000C004000100040001400407D
:100B400000400140004401400048014000BFFEE772
:100B500002E008C8121F08C1002AFAD17047704786
:100B6000002001E001C1121F002AFBD170470000E4
:100B70000146114A12884A434FF0E0235A6100228D
:100B80009A611A46126942F001021A6100BF4FF0E1
:100B9000E022106900F001021AB100F48032002A4C
:100BA000F5D04FF0E022126922F001024FF0E0236D
:100BB0001A6100229A617047080000200026002771
:100BC0000025A84696244820FFF7F6FD4FF4A060C4
:100BD000FFF720FDFFF7A0FCFFF754FCFFF7BAFC7E
:100BE000FFF738FE47214FF4FA60FFF749FE40F265
:100BF000CF214FF4FA60FFF793FE002067490860A9
:100C00006749C1F89801012064491C3908606349AB
:100C100014390860091D086000216248FFF741FF90
:100C200021466148FFF73DFFB6E0FFF71FFD05468F
:100C3000002D4DD1FFF73CFC0746032F0CD15B483C
:100C4000007848B901205549086000205449C1F88E
:100C50009801012055490870042F0BD153480078A2
:100C600040B900204D4908604D49C1F89801012064
:100C70004E4908704D48007898B900214948FFF75F
:100C8000A5FE47214FF47A60FFF7FAFD01214548A0
:100C9000FFF79CFE00214348FFF703FF0020444973
:100CA00008804248007800284BD000213D48FFF7DB
:100CB0008DFE47214FF4FA60FFF7E2FD012139482C
:100CC000FFF784FE40F2DC513648FFF7EAFE38E0D9
:100CD000012D19D10020314908603149C1F898012E
:100CE0003249087000212F48FFF770FE47214FF46A
:100CF000FA60FFF7C5FD01212A48FFF767FE40F2C1
:100D0000DC512848FFF7CDFE022D1AD101202349DE
:100D1000086000202249C1F8980124490870002188
:100D20002048FFF753FE47214FF4FA60FFF7A8FD74
:100D300001211C48FFF74AFE40F2DC511948FFF739
:100D4000B0FEB8F1000F0AD1601C84B2C82C10D1DB
:100D50004FF00108BE211448FFF7A3FE09E0601E12
:100D600084B2642C05D14FF000086E210E48FFF7C5
:100D700098FE701C86B2142096FBF0F100FB116007
:100D800038B90C48006808B9012000E00020094982
:100D900008600A20FFF7ECFE47E70000A08121422F
:100DA00000802142000400400008004000000020B4
:100DB00002000020B4012242D80D000800000020EB
:100DC0000C000000500B0008E40D00080C0000208F
:100DD00004040000600B0008000000000100000097
:040DE000000000000F
:04000005080000ED02
:00000001FF
